{
  "_format": "hh-sol-artifact-1",
  "contractName": "BulkPayroll",
  "sourceName": "contracts/transfers-production/BulkPayroll.sol",
  "abi": [
    {
      "inputs": [],
      "name": "InsufficientAllowance",
      "type": "error"
    },
    {
      "inputs": [],
      "name": "InsufficientBalance",
      "type": "error"
    },
    {
      "inputs": [],
      "name": "LengthMismatch",
      "type": "error"
    },
    {
      "inputs": [],
      "name": "ReentrancyGuardReentrantCall",
      "type": "error"
    },
    {
      "inputs": [],
      "name": "RefundFailed",
      "type": "error"
    },
    {
      "inputs": [
        {
          "internalType": "address",
          "name": "token",
          "type": "address"
        }
      ],
      "name": "SafeERC20FailedOperation",
      "type": "error"
    },
    {
      "inputs": [],
      "name": "TransferFailed",
      "type": "error"
    },
    {
      "anonymous": false,
      "inputs": [
        {
          "indexed": true,
          "internalType": "address",
          "name": "sender",
          "type": "address"
        },
        {
          "indexed": true,
          "internalType": "address",
          "name": "token",
          "type": "address"
        },
        {
          "indexed": false,
          "internalType": "uint256",
          "name": "totalRecipients",
          "type": "uint256"
        },
        {
          "indexed": false,
          "internalType": "uint256",
          "name": "totalAmount",
          "type": "uint256"
        }
      ],
      "name": "BulkTransferExecuted",
      "type": "event"
    },
    {
      "inputs": [
        {
          "internalType": "address",
          "name": "token",
          "type": "address"
        },
        {
          "internalType": "address[]",
          "name": "recipients",
          "type": "address[]"
        },
        {
          "internalType": "uint256[]",
          "name": "amounts",
          "type": "uint256[]"
        }
      ],
      "name": "bulkTransfer",
      "outputs": [],
      "stateMutability": "payable",
      "type": "function"
    }
  ],
  "bytecode": "0x6080604052348015600f57600080fd5b506001600081905550610ab1806100276000396000f3fe60806040526004361061001e5760003560e01c8063e886dade14610023575b600080fd5b61003d60048036038101906100389190610788565b61003f565b005b610047610197565b600084849050905082829050811461008b576040517fff633a3800000000000000000000000000000000000000000000000000000000815260040160405180910390fd5b6000805b828110156100c9578484828181106100aa576100a961081d565b5b90506020020135826100bc9190610885565b915080600101905061008f565b50600073ffffffffffffffffffffffffffffffffffffffff168773ffffffffffffffffffffffffffffffffffffffff16036101105761010b81878787876101dd565b61011f565b61011e878288888888610325565b5b8673ffffffffffffffffffffffffffffffffffffffff163373ffffffffffffffffffffffffffffffffffffffff167fb08c62751f0c97f86ef37a4fa2bdb07aa8f67f0c26a5c87ed7973e85a4c6d19b848460405161017e9291906108c8565b60405180910390a35050610190610475565b5050505050565b6002600054036101d3576040517f3ee5aeb500000000000000000000000000000000000000000000000000000000815260040160405180910390fd5b6002600081905550565b84341015610217576040517ff4d678b800000000000000000000000000000000000000000000000000000000815260040160405180910390fd5b60005b8484905081101561031457600085858381811061023a5761023961081d565b5b905060200201602081019061024f91906108f1565b73ffffffffffffffffffffffffffffffffffffffff168484848181106102785761027761081d565b5b9050602002013560405161028b9061094f565b60006040518083038185875af1925050503d80600081146102c8576040519150601f19603f3d011682016040523d82523d6000602084013e6102cd565b606091505b5050905080610308576040517f90b8ec1800000000000000000000000000000000000000000000000000000000815260040160405180910390fd5b8160010191505061021a565b5061031e8561047f565b5050505050565b600086905060008173ffffffffffffffffffffffffffffffffffffffff1663dd62ed3e33306040518363ffffffff1660e01b8152600401610367929190610973565b602060405180830381865afa158015610384573d6000803e3d6000fd5b505050506040513d601f19601f820116820180604052508101906103a891906109c8565b9050868110156103e4576040517f13be252b00000000000000000000000000000000000000000000000000000000815260040160405180910390fd5b60005b8686905081101561046a5761045f338888848181106104095761040861081d565b5b905060200201602081019061041e91906108f1565b8787858181106104315761043061081d565b5b905060200201358673ffffffffffffffffffffffffffffffffffffffff16610541909392919063ffffffff16565b8060010190506103e7565b505050505050505050565b6001600081905550565b6000813461048d91906109f5565b9050600081111561053d5760003373ffffffffffffffffffffffffffffffffffffffff16826040516104be9061094f565b60006040518083038185875af1925050503d80600081146104fb576040519150601f19603f3d011682016040523d82523d6000602084013e610500565b606091505b505090508061053b576040517ff0c49d4400000000000000000000000000000000000000000000000000000000815260040160405180910390fd5b505b5050565b6105bd848573ffffffffffffffffffffffffffffffffffffffff166323b872dd86868660405160240161057693929190610a29565b604051602081830303815290604052915060e01b6020820180517bffffffffffffffffffffffffffffffffffffffffffffffffffffffff83818316178352505050506105c3565b50505050565b600080602060008451602086016000885af1806105e6576040513d6000823e3d81fd5b3d92506000519150506000821461060157600181141561061d565b60008473ffffffffffffffffffffffffffffffffffffffff163b145b1561065f57836040517f5274afe70000000000000000000000000000000000000000000000000000000081526004016106569190610a60565b60405180910390fd5b50505050565b600080fd5b600080fd5b600073ffffffffffffffffffffffffffffffffffffffff82169050919050565b600061069a8261066f565b9050919050565b6106aa8161068f565b81146106b557600080fd5b50565b6000813590506106c7816106a1565b92915050565b600080fd5b600080fd5b600080fd5b60008083601f8401126106f2576106f16106cd565b5b8235905067ffffffffffffffff81111561070f5761070e6106d2565b5b60208301915083602082028301111561072b5761072a6106d7565b5b9250929050565b60008083601f840112610748576107476106cd565b5b8235905067ffffffffffffffff811115610765576107646106d2565b5b602083019150836020820283011115610781576107806106d7565b5b9250929050565b6000806000806000606086880312156107a4576107a3610665565b5b60006107b2888289016106b8565b955050602086013567ffffffffffffffff8111156107d3576107d261066a565b5b6107df888289016106dc565b9450945050604086013567ffffffffffffffff8111156108025761080161066a565b5b61080e88828901610732565b92509250509295509295909350565b7f4e487b7100000000000000000000000000000000000000000000000000000000600052603260045260246000fd5b6000819050919050565b7f4e487b7100000000000000000000000000000000000000000000000000000000600052601160045260246000fd5b60006108908261084c565b915061089b8361084c565b92508282019050808211156108b3576108b2610856565b5b92915050565b6108c28161084c565b82525050565b60006040820190506108dd60008301856108b9565b6108ea60208301846108b9565b9392505050565b60006020828403121561090757610906610665565b5b6000610915848285016106b8565b91505092915050565b600081905092915050565b50565b600061093960008361091e565b915061094482610929565b600082019050919050565b600061095a8261092c565b9150819050919050565b61096d8161068f565b82525050565b60006040820190506109886000830185610964565b6109956020830184610964565b9392505050565b6109a58161084c565b81146109b057600080fd5b50565b6000815190506109c28161099c565b92915050565b6000602082840312156109de576109dd610665565b5b60006109ec848285016109b3565b91505092915050565b6000610a008261084c565b9150610a0b8361084c565b9250828203905081811115610a2357610a22610856565b5b92915050565b6000606082019050610a3e6000830186610964565b610a4b6020830185610964565b610a5860408301846108b9565b949350505050565b6000602082019050610a756000830184610964565b9291505056fea2646970667358221220d990d7d2cab51bf6bf4263eb2423aa0ac24ba5d89759dcaf1f710074f3cd0f4664736f6c634300081b0033",
  "linkReferences": {},
  "deployedLinkReferences": {}
}