{
  "_format": "hh-sol-artifact-1",
  "contractName": "KIP7",
  "sourceName": "contracts/USDT/usdtContract.sol",
  "abi": [
    {
      "inputs": [
        {
          "internalType": "string",
          "name": "name_",
          "type": "string"
        },
        {
          "internalType": "string",
          "name": "symbol_",
          "type": "string"
        }
      ],
      "stateMutability": "nonpayable",
      "type": "constructor"
    },
    {
      "anonymous": false,
      "inputs": [
        {
          "indexed": true,
          "internalType": "address",
          "name": "owner",
          "type": "address"
        },
        {
          "indexed": true,
          "internalType": "address",
          "name": "spender",
          "type": "address"
        },
        {
          "indexed": false,
          "internalType": "uint256",
          "name": "value",
          "type": "uint256"
        }
      ],
      "name": "Approval",
      "type": "event"
    },
    {
      "anonymous": false,
      "inputs": [
        {
          "indexed": true,
          "internalType": "address",
          "name": "previousOwner",
          "type": "address"
        },
        {
          "indexed": true,
          "internalType": "address",
          "name": "newOwner",
          "type": "address"
        }
      ],
      "name": "OwnershipTransferred",
      "type": "event"
    },
    {
      "anonymous": false,
      "inputs": [
        {
          "indexed": true,
          "internalType": "address",
          "name": "from",
          "type": "address"
        },
        {
          "indexed": true,
          "internalType": "address",
          "name": "to",
          "type": "address"
        },
        {
          "indexed": false,
          "internalType": "uint256",
          "name": "value",
          "type": "uint256"
        }
      ],
      "name": "Transfer",
      "type": "event"
    },
    {
      "inputs": [
        {
          "internalType": "address",
          "name": "owner",
          "type": "address"
        },
        {
          "internalType": "address",
          "name": "spender",
          "type": "address"
        }
      ],
      "name": "allowance",
      "outputs": [
        {
          "internalType": "uint256",
          "name": "",
          "type": "uint256"
        }
      ],
      "stateMutability": "view",
      "type": "function"
    },
    {
      "inputs": [
        {
          "internalType": "address",
          "name": "spender",
          "type": "address"
        },
        {
          "internalType": "uint256",
          "name": "amount",
          "type": "uint256"
        }
      ],
      "name": "approve",
      "outputs": [
        {
          "internalType": "bool",
          "name": "",
          "type": "bool"
        }
      ],
      "stateMutability": "nonpayable",
      "type": "function"
    },
    {
      "inputs": [
        {
          "internalType": "address",
          "name": "account",
          "type": "address"
        }
      ],
      "name": "balanceOf",
      "outputs": [
        {
          "internalType": "uint256",
          "name": "",
          "type": "uint256"
        }
      ],
      "stateMutability": "view",
      "type": "function"
    },
    {
      "inputs": [
        {
          "internalType": "uint256",
          "name": "amount",
          "type": "uint256"
        }
      ],
      "name": "burn",
      "outputs": [],
      "stateMutability": "nonpayable",
      "type": "function"
    },
    {
      "inputs": [],
      "name": "decimals",
      "outputs": [
        {
          "internalType": "uint8",
          "name": "",
          "type": "uint8"
        }
      ],
      "stateMutability": "view",
      "type": "function"
    },
    {
      "inputs": [
        {
          "internalType": "address",
          "name": "spender",
          "type": "address"
        },
        {
          "internalType": "uint256",
          "name": "subtractedValue",
          "type": "uint256"
        }
      ],
      "name": "decreaseAllowance",
      "outputs": [
        {
          "internalType": "bool",
          "name": "",
          "type": "bool"
        }
      ],
      "stateMutability": "nonpayable",
      "type": "function"
    },
    {
      "inputs": [
        {
          "internalType": "address",
          "name": "spender",
          "type": "address"
        },
        {
          "internalType": "uint256",
          "name": "addedValue",
          "type": "uint256"
        }
      ],
      "name": "increaseAllowance",
      "outputs": [
        {
          "internalType": "bool",
          "name": "",
          "type": "bool"
        }
      ],
      "stateMutability": "nonpayable",
      "type": "function"
    },
    {
      "inputs": [
        {
          "internalType": "address",
          "name": "to",
          "type": "address"
        },
        {
          "internalType": "uint256",
          "name": "amount",
          "type": "uint256"
        }
      ],
      "name": "mint",
      "outputs": [],
      "stateMutability": "nonpayable",
      "type": "function"
    },
    {
      "inputs": [],
      "name": "name",
      "outputs": [
        {
          "internalType": "string",
          "name": "",
          "type": "string"
        }
      ],
      "stateMutability": "view",
      "type": "function"
    },
    {
      "inputs": [],
      "name": "owner",
      "outputs": [
        {
          "internalType": "address",
          "name": "",
          "type": "address"
        }
      ],
      "stateMutability": "view",
      "type": "function"
    },
    {
      "inputs": [],
      "name": "renounceOwnership",
      "outputs": [],
      "stateMutability": "nonpayable",
      "type": "function"
    },
    {
      "inputs": [
        {
          "internalType": "address",
          "name": "recipient",
          "type": "address"
        },
        {
          "internalType": "uint256",
          "name": "amount",
          "type": "uint256"
        }
      ],
      "name": "safeTransfer",
      "outputs": [],
      "stateMutability": "nonpayable",
      "type": "function"
    },
    {
      "inputs": [
        {
          "internalType": "address",
          "name": "recipient",
          "type": "address"
        },
        {
          "internalType": "uint256",
          "name": "amount",
          "type": "uint256"
        },
        {
          "internalType": "bytes",
          "name": "_data",
          "type": "bytes"
        }
      ],
      "name": "safeTransfer",
      "outputs": [],
      "stateMutability": "nonpayable",
      "type": "function"
    },
    {
      "inputs": [
        {
          "internalType": "address",
          "name": "sender",
          "type": "address"
        },
        {
          "internalType": "address",
          "name": "recipient",
          "type": "address"
        },
        {
          "internalType": "uint256",
          "name": "amount",
          "type": "uint256"
        }
      ],
      "name": "safeTransferFrom",
      "outputs": [],
      "stateMutability": "nonpayable",
      "type": "function"
    },
    {
      "inputs": [
        {
          "internalType": "address",
          "name": "sender",
          "type": "address"
        },
        {
          "internalType": "address",
          "name": "recipient",
          "type": "address"
        },
        {
          "internalType": "uint256",
          "name": "amount",
          "type": "uint256"
        },
        {
          "internalType": "bytes",
          "name": "_data",
          "type": "bytes"
        }
      ],
      "name": "safeTransferFrom",
      "outputs": [],
      "stateMutability": "nonpayable",
      "type": "function"
    },
    {
      "inputs": [
        {
          "internalType": "bytes4",
          "name": "interfaceId",
          "type": "bytes4"
        }
      ],
      "name": "supportsInterface",
      "outputs": [
        {
          "internalType": "bool",
          "name": "",
          "type": "bool"
        }
      ],
      "stateMutability": "view",
      "type": "function"
    },
    {
      "inputs": [],
      "name": "symbol",
      "outputs": [
        {
          "internalType": "string",
          "name": "",
          "type": "string"
        }
      ],
      "stateMutability": "view",
      "type": "function"
    },
    {
      "inputs": [],
      "name": "totalSupply",
      "outputs": [
        {
          "internalType": "uint256",
          "name": "",
          "type": "uint256"
        }
      ],
      "stateMutability": "view",
      "type": "function"
    },
    {
      "inputs": [
        {
          "internalType": "address",
          "name": "to",
          "type": "address"
        },
        {
          "internalType": "uint256",
          "name": "amount",
          "type": "uint256"
        }
      ],
      "name": "transfer",
      "outputs": [
        {
          "internalType": "bool",
          "name": "",
          "type": "bool"
        }
      ],
      "stateMutability": "nonpayable",
      "type": "function"
    },
    {
      "inputs": [
        {
          "internalType": "address",
          "name": "from",
          "type": "address"
        },
        {
          "internalType": "address",
          "name": "to",
          "type": "address"
        },
        {
          "internalType": "uint256",
          "name": "amount",
          "type": "uint256"
        }
      ],
      "name": "transferFrom",
      "outputs": [
        {
          "internalType": "bool",
          "name": "",
          "type": "bool"
        }
      ],
      "stateMutability": "nonpayable",
      "type": "function"
    },
    {
      "inputs": [
        {
          "internalType": "address",
          "name": "newOwner",
          "type": "address"
        }
      ],
      "name": "transferOwnership",
      "outputs": [],
      "stateMutability": "nonpayable",
      "type": "function"
    }
  ],
  "bytecode": "0x608060405234801561001057600080fd5b50604051612c80380380612c80833981810160405281019061003291906102b6565b61004e61004361007560201b60201c565b61007d60201b60201c565b816004908161005d919061054f565b50806005908161006d919061054f565b505050610621565b600033905090565b60008060009054906101000a900473ffffffffffffffffffffffffffffffffffffffff169050816000806101000a81548173ffffffffffffffffffffffffffffffffffffffff021916908373ffffffffffffffffffffffffffffffffffffffff1602179055508173ffffffffffffffffffffffffffffffffffffffff168173ffffffffffffffffffffffffffffffffffffffff167f8be0079c531659141344cd1fd0a4f28419497f9722a3daafe3b4186f6b6457e060405160405180910390a35050565b6000604051905090565b600080fd5b600080fd5b600080fd5b600080fd5b6000601f19601f8301169050919050565b7f4e487b7100000000000000000000000000000000000000000000000000000000600052604160045260246000fd5b6101a88261015f565b810181811067ffffffffffffffff821117156101c7576101c6610170565b5b80604052505050565b60006101da610141565b90506101e6828261019f565b919050565b600067ffffffffffffffff82111561020657610205610170565b5b61020f8261015f565b9050602081019050919050565b60005b8381101561023a57808201518184015260208101905061021f565b60008484015250505050565b6000610259610254846101eb565b6101d0565b9050828152602081018484840111156102755761027461015a565b5b61028084828561021c565b509392505050565b600082601f83011261029d5761029c610155565b5b81516102ad848260208601610246565b91505092915050565b600080604083850312156102cd576102cc61014b565b5b600083015167ffffffffffffffff8111156102eb576102ea610150565b5b6102f785828601610288565b925050602083015167ffffffffffffffff81111561031857610317610150565b5b61032485828601610288565b9150509250929050565b600081519050919050565b7f4e487b7100000000000000000000000000000000000000000000000000000000600052602260045260246000fd5b6000600282049050600182168061038057607f821691505b60208210810361039357610392610339565b5b50919050565b60008190508160005260206000209050919050565b60006020601f8301049050919050565b600082821b905092915050565b6000600883026103fb7fffffffffffffffffffffffffffffffffffffffffffffffffffffffffffffffff826103be565b61040586836103be565b95508019841693508086168417925050509392505050565b6000819050919050565b6000819050919050565b600061044c6104476104428461041d565b610427565b61041d565b9050919050565b6000819050919050565b61046683610431565b61047a61047282610453565b8484546103cb565b825550505050565b600090565b61048f610482565b61049a81848461045d565b505050565b5b818110156104be576104b3600082610487565b6001810190506104a0565b5050565b601f821115610503576104d481610399565b6104dd846103ae565b810160208510156104ec578190505b6105006104f8856103ae565b83018261049f565b50505b505050565b600082821c905092915050565b600061052660001984600802610508565b1980831691505092915050565b600061053f8383610515565b9150826002028217905092915050565b6105588261032e565b67ffffffffffffffff81111561057157610570610170565b5b61057b8254610368565b6105868282856104c2565b600060209050601f8311600181146105b957600084156105a7578287015190505b6105b18582610533565b865550610619565b601f1984166105c786610399565b60005b828110156105ef578489015182556001820191506020850194506020810190506105ca565b8683101561060c5784890151610608601f891682610515565b8355505b6001600288020188555050505b505050505050565b612650806106306000396000f3fe608060405234801561001057600080fd5b50600436106101375760003560e01c806342966c68116100b8578063a457c2d71161007c578063a457c2d71461033c578063a9059cbb1461036c578063b88d4fde1461039c578063dd62ed3e146103b8578063eb795549146103e8578063f2fde38b1461040457610137565b806342966c68146102aa57806370a08231146102c6578063715018a6146102f65780638da5cb5b1461030057806395d89b411461031e57610137565b8063313ce567116100ff578063313ce56714610208578063395093511461022657806340c10f1914610256578063423f6cef1461027257806342842e0e1461028e57610137565b806301ffc9a71461013c57806306fdde031461016c578063095ea7b31461018a57806318160ddd146101ba57806323b872dd146101d8575b600080fd5b61015660048036038101906101519190611754565b610420565b604051610163919061179c565b60405180910390f35b610174610502565b6040516101819190611847565b60405180910390f35b6101a4600480360381019061019f91906118fd565b610594565b6040516101b1919061179c565b60405180910390f35b6101c26105b7565b6040516101cf919061194c565b60405180910390f35b6101f260048036038101906101ed9190611967565b6105c1565b6040516101ff919061179c565b60405180910390f35b6102106105f0565b60405161021d91906119d6565b60405180910390f35b610240600480360381019061023b91906118fd565b6105f9565b60405161024d919061179c565b60405180910390f35b610270600480360381019061026b91906118fd565b610630565b005b61028c600480360381019061028791906118fd565b6106ba565b005b6102a860048036038101906102a39190611967565b6106e6565b005b6102c460048036038101906102bf91906119f1565b61071e565b005b6102e060048036038101906102db9190611a1e565b6107a7565b6040516102ed919061194c565b60405180910390f35b6102fe6107f0565b005b610308610878565b6040516103159190611a5a565b60405180910390f35b6103266108a1565b6040516103339190611847565b60405180910390f35b610356600480360381019061035191906118fd565b610933565b604051610363919061179c565b60405180910390f35b610386600480360381019061038191906118fd565b6109aa565b604051610393919061179c565b60405180910390f35b6103b660048036038101906103b19190611baa565b6109cd565b005b6103d260048036038101906103cd9190611c2d565b6109f7565b6040516103df919061194c565b60405180910390f35b61040260048036038101906103fd9190611c6d565b610a7e565b005b61041e60048036038101906104199190611a1e565b610a9c565b005b60007f65787371000000000000000000000000000000000000000000000000000000007bffffffffffffffffffffffffffffffffffffffffffffffffffffffff1916827bffffffffffffffffffffffffffffffffffffffffffffffffffffffff191614806104eb57507fa219a025000000000000000000000000000000000000000000000000000000007bffffffffffffffffffffffffffffffffffffffffffffffffffffffff1916827bffffffffffffffffffffffffffffffffffffffffffffffffffffffff1916145b806104fb57506104fa82610b93565b5b9050919050565b60606004805461051190611d0b565b80601f016020809104026020016040519081016040528092919081815260200182805461053d90611d0b565b801561058a5780601f1061055f5761010080835404028352916020019161058a565b820191906000526020600020905b81548152906001019060200180831161056d57829003601f168201915b5050505050905090565b60008061059f610bfd565b90506105ac818585610c05565b600191505092915050565b6000600354905090565b6000806105cc610bfd565b90506105d9858285610dce565b6105e4858585610e5a565b60019150509392505050565b60006012905090565b600080610604610bfd565b905061062581858561061685896109f7565b6106209190611d6b565b610c05565b600191505092915050565b610638610bfd565b73ffffffffffffffffffffffffffffffffffffffff16610656610878565b73ffffffffffffffffffffffffffffffffffffffff16146106ac576040517f08c379a00000000000000000000000000000000000000000000000000000000081526004016106a390611deb565b60405180910390fd5b6106b682826110dc565b5050565b60006106c4610bfd565b90506106e18184846040518060200160405280600081525061123c565b505050565b60006106f0610bfd565b90506106fd848284610dce565b6107188484846040518060200160405280600081525061123c565b50505050565b610726610bfd565b73ffffffffffffffffffffffffffffffffffffffff16610744610878565b73ffffffffffffffffffffffffffffffffffffffff161461079a576040517f08c379a000000000000000000000000000000000000000000000000000000000815260040161079190611deb565b60405180910390fd5b6107a43382611298565b50565b6000600160008373ffffffffffffffffffffffffffffffffffffffff1673ffffffffffffffffffffffffffffffffffffffff168152602001908152602001600020549050919050565b6107f8610bfd565b73ffffffffffffffffffffffffffffffffffffffff16610816610878565b73ffffffffffffffffffffffffffffffffffffffff161461086c576040517f08c379a000000000000000000000000000000000000000000000000000000000815260040161086390611deb565b60405180910390fd5b6108766000611470565b565b60008060009054906101000a900473ffffffffffffffffffffffffffffffffffffffff16905090565b6060600580546108b090611d0b565b80601f01602080910402602001604051908101604052809291908181526020018280546108dc90611d0b565b80156109295780601f106108fe57610100808354040283529160200191610929565b820191906000526020600020905b81548152906001019060200180831161090c57829003601f168201915b5050505050905090565b60008061093e610bfd565b9050600061094c82866109f7565b905083811015610991576040517f08c379a000000000000000000000000000000000000000000000000000000000815260040161098890611e7d565b60405180910390fd5b61099e8286868403610c05565b60019250505092915050565b6000806109b5610bfd565b90506109c2818585610e5a565b600191505092915050565b60006109d7610bfd565b90506109e4858285610dce565b6109f08585858561123c565b5050505050565b6000600260008473ffffffffffffffffffffffffffffffffffffffff1673ffffffffffffffffffffffffffffffffffffffff16815260200190815260200160002060008373ffffffffffffffffffffffffffffffffffffffff1673ffffffffffffffffffffffffffffffffffffffff16815260200190815260200160002054905092915050565b6000610a88610bfd565b9050610a968185858561123c565b50505050565b610aa4610bfd565b73ffffffffffffffffffffffffffffffffffffffff16610ac2610878565b73ffffffffffffffffffffffffffffffffffffffff1614610b18576040517f08c379a0000000000000000000000000000000000000000000000000000000008152600401610b0f90611deb565b60405180910390fd5b600073ffffffffffffffffffffffffffffffffffffffff168173ffffffffffffffffffffffffffffffffffffffff1603610b87576040517f08c379a0000000000000000000000000000000000000000000000000000000008152600401610b7e90611f0f565b60405180910390fd5b610b9081611470565b50565b60007f01ffc9a7000000000000000000000000000000000000000000000000000000007bffffffffffffffffffffffffffffffffffffffffffffffffffffffff1916827bffffffffffffffffffffffffffffffffffffffffffffffffffffffff1916149050919050565b600033905090565b600073ffffffffffffffffffffffffffffffffffffffff168373ffffffffffffffffffffffffffffffffffffffff1603610c74576040517f08c379a0000000000000000000000000000000000000000000000000000000008152600401610c6b90611fa1565b60405180910390fd5b600073ffffffffffffffffffffffffffffffffffffffff168273ffffffffffffffffffffffffffffffffffffffff1603610ce3576040517f08c379a0000000000000000000000000000000000000000000000000000000008152600401610cda90612033565b60405180910390fd5b80600260008573ffffffffffffffffffffffffffffffffffffffff1673ffffffffffffffffffffffffffffffffffffffff16815260200190815260200160002060008473ffffffffffffffffffffffffffffffffffffffff1673ffffffffffffffffffffffffffffffffffffffff168152602001908152602001600020819055508173ffffffffffffffffffffffffffffffffffffffff168373ffffffffffffffffffffffffffffffffffffffff167f8c5be1e5ebec7d5bd14f71427d1e84f3dd0314c0f7b2291e5b200ac8c7c3b92583604051610dc1919061194c565b60405180910390a3505050565b6000610dda84846109f7565b90507fffffffffffffffffffffffffffffffffffffffffffffffffffffffffffffffff8114610e545781811015610e46576040517f08c379a0000000000000000000000000000000000000000000000000000000008152600401610e3d9061209f565b60405180910390fd5b610e538484848403610c05565b5b50505050565b600073ffffffffffffffffffffffffffffffffffffffff168373ffffffffffffffffffffffffffffffffffffffff1603610ec9576040517f08c379a0000000000000000000000000000000000000000000000000000000008152600401610ec090612131565b60405180910390fd5b600073ffffffffffffffffffffffffffffffffffffffff168273ffffffffffffffffffffffffffffffffffffffff1603610f38576040517f08c379a0000000000000000000000000000000000000000000000000000000008152600401610f2f906121c3565b60405180910390fd5b610f43838383611534565b6000600160008573ffffffffffffffffffffffffffffffffffffffff1673ffffffffffffffffffffffffffffffffffffffff16815260200190815260200160002054905081811015610fca576040517f08c379a0000000000000000000000000000000000000000000000000000000008152600401610fc190612255565b60405180910390fd5b818103600160008673ffffffffffffffffffffffffffffffffffffffff1673ffffffffffffffffffffffffffffffffffffffff1681526020019081526020016000208190555081600160008573ffffffffffffffffffffffffffffffffffffffff1673ffffffffffffffffffffffffffffffffffffffff168152602001908152602001600020600082825461105f9190611d6b565b925050819055508273ffffffffffffffffffffffffffffffffffffffff168473ffffffffffffffffffffffffffffffffffffffff167fddf252ad1be2c89b69c2b068fc378daa952ba7f163c4a11628f55a4df523b3ef846040516110c3919061194c565b60405180910390a36110d6848484611539565b50505050565b600073ffffffffffffffffffffffffffffffffffffffff168273ffffffffffffffffffffffffffffffffffffffff160361114b576040517f08c379a0000000000000000000000000000000000000000000000000000000008152600401611142906122c1565b60405180910390fd5b61115760008383611534565b80600360008282546111699190611d6b565b9250508190555080600160008473ffffffffffffffffffffffffffffffffffffffff1673ffffffffffffffffffffffffffffffffffffffff16815260200190815260200160002060008282546111bf9190611d6b565b925050819055508173ffffffffffffffffffffffffffffffffffffffff16600073ffffffffffffffffffffffffffffffffffffffff167fddf252ad1be2c89b69c2b068fc378daa952ba7f163c4a11628f55a4df523b3ef83604051611224919061194c565b60405180910390a361123860008383611539565b5050565b611247848484610e5a565b6112538484848461153e565b611292576040517f08c379a000000000000000000000000000000000000000000000000000000000815260040161128990612353565b60405180910390fd5b50505050565b600073ffffffffffffffffffffffffffffffffffffffff168273ffffffffffffffffffffffffffffffffffffffff1603611307576040517f08c379a00000000000000000000000000000000000000000000000000000000081526004016112fe906123bf565b60405180910390fd5b61131382600083611534565b6000600160008473ffffffffffffffffffffffffffffffffffffffff1673ffffffffffffffffffffffffffffffffffffffff1681526020019081526020016000205490508181101561139a576040517f08c379a000000000000000000000000000000000000000000000000000000000815260040161139190612451565b60405180910390fd5b818103600160008573ffffffffffffffffffffffffffffffffffffffff1673ffffffffffffffffffffffffffffffffffffffff1681526020019081526020016000208190555081600360008282546113f29190612471565b92505081905550600073ffffffffffffffffffffffffffffffffffffffff168373ffffffffffffffffffffffffffffffffffffffff167fddf252ad1be2c89b69c2b068fc378daa952ba7f163c4a11628f55a4df523b3ef84604051611457919061194c565b60405180910390a361146b83600084611539565b505050565b60008060009054906101000a900473ffffffffffffffffffffffffffffffffffffffff169050816000806101000a81548173ffffffffffffffffffffffffffffffffffffffff021916908373ffffffffffffffffffffffffffffffffffffffff1602179055508173ffffffffffffffffffffffffffffffffffffffff168173ffffffffffffffffffffffffffffffffffffffff167f8be0079c531659141344cd1fd0a4f28419497f9722a3daafe3b4186f6b6457e060405160405180910390a35050565b505050565b505050565b600061155f8473ffffffffffffffffffffffffffffffffffffffff166116c5565b156116b8578373ffffffffffffffffffffffffffffffffffffffff16639d188c22611588610bfd565b8786866040518563ffffffff1660e01b81526004016115aa94939291906124fa565b6020604051808303816000875af19250505080156115e657506040513d601f19601f820116820180604052508101906115e3919061255b565b60015b611668573d8060008114611616576040519150601f19603f3d011682016040523d82523d6000602084013e61161b565b606091505b506000815103611660576040517f08c379a0000000000000000000000000000000000000000000000000000000008152600401611657906125fa565b60405180910390fd5b805181602001fd5b639d188c2260e01b7bffffffffffffffffffffffffffffffffffffffffffffffffffffffff1916817bffffffffffffffffffffffffffffffffffffffffffffffffffffffff1916149150506116bd565b600190505b949350505050565b6000808273ffffffffffffffffffffffffffffffffffffffff163b119050919050565b6000604051905090565b600080fd5b600080fd5b60007fffffffff0000000000000000000000000000000000000000000000000000000082169050919050565b611731816116fc565b811461173c57600080fd5b50565b60008135905061174e81611728565b92915050565b60006020828403121561176a576117696116f2565b5b60006117788482850161173f565b91505092915050565b60008115159050919050565b61179681611781565b82525050565b60006020820190506117b1600083018461178d565b92915050565b600081519050919050565b600082825260208201905092915050565b60005b838110156117f15780820151818401526020810190506117d6565b60008484015250505050565b6000601f19601f8301169050919050565b6000611819826117b7565b61182381856117c2565b93506118338185602086016117d3565b61183c816117fd565b840191505092915050565b60006020820190508181036000830152611861818461180e565b905092915050565b600073ffffffffffffffffffffffffffffffffffffffff82169050919050565b600061189482611869565b9050919050565b6118a481611889565b81146118af57600080fd5b50565b6000813590506118c18161189b565b92915050565b6000819050919050565b6118da816118c7565b81146118e557600080fd5b50565b6000813590506118f7816118d1565b92915050565b60008060408385031215611914576119136116f2565b5b6000611922858286016118b2565b9250506020611933858286016118e8565b9150509250929050565b611946816118c7565b82525050565b6000602082019050611961600083018461193d565b92915050565b6000806000606084860312156119805761197f6116f2565b5b600061198e868287016118b2565b935050602061199f868287016118b2565b92505060406119b0868287016118e8565b9150509250925092565b600060ff82169050919050565b6119d0816119ba565b82525050565b60006020820190506119eb60008301846119c7565b92915050565b600060208284031215611a0757611a066116f2565b5b6000611a15848285016118e8565b91505092915050565b600060208284031215611a3457611a336116f2565b5b6000611a42848285016118b2565b91505092915050565b611a5481611889565b82525050565b6000602082019050611a6f6000830184611a4b565b92915050565b600080fd5b600080fd5b7f4e487b7100000000000000000000000000000000000000000000000000000000600052604160045260246000fd5b611ab7826117fd565b810181811067ffffffffffffffff82111715611ad657611ad5611a7f565b5b80604052505050565b6000611ae96116e8565b9050611af58282611aae565b919050565b600067ffffffffffffffff821115611b1557611b14611a7f565b5b611b1e826117fd565b9050602081019050919050565b82818337600083830152505050565b6000611b4d611b4884611afa565b611adf565b905082815260208101848484011115611b6957611b68611a7a565b5b611b74848285611b2b565b509392505050565b600082601f830112611b9157611b90611a75565b5b8135611ba1848260208601611b3a565b91505092915050565b60008060008060808587031215611bc457611bc36116f2565b5b6000611bd2878288016118b2565b9450506020611be3878288016118b2565b9350506040611bf4878288016118e8565b925050606085013567ffffffffffffffff811115611c1557611c146116f7565b5b611c2187828801611b7c565b91505092959194509250565b60008060408385031215611c4457611c436116f2565b5b6000611c52858286016118b2565b9250506020611c63858286016118b2565b9150509250929050565b600080600060608486031215611c8657611c856116f2565b5b6000611c94868287016118b2565b9350506020611ca5868287016118e8565b925050604084013567ffffffffffffffff811115611cc657611cc56116f7565b5b611cd286828701611b7c565b9150509250925092565b7f4e487b7100000000000000000000000000000000000000000000000000000000600052602260045260246000fd5b60006002820490506001821680611d2357607f821691505b602082108103611d3657611d35611cdc565b5b50919050565b7f4e487b7100000000000000000000000000000000000000000000000000000000600052601160045260246000fd5b6000611d76826118c7565b9150611d81836118c7565b9250828201905080821115611d9957611d98611d3c565b5b92915050565b7f4f776e61626c653a2063616c6c6572206973206e6f7420746865206f776e6572600082015250565b6000611dd56020836117c2565b9150611de082611d9f565b602082019050919050565b60006020820190508181036000830152611e0481611dc8565b9050919050565b7f4b4950373a2064656372656173656420616c6c6f77616e63652062656c6f772060008201527f7a65726f00000000000000000000000000000000000000000000000000000000602082015250565b6000611e676024836117c2565b9150611e7282611e0b565b604082019050919050565b60006020820190508181036000830152611e9681611e5a565b9050919050565b7f4f776e61626c653a206e6577206f776e657220697320746865207a65726f206160008201527f6464726573730000000000000000000000000000000000000000000000000000602082015250565b6000611ef96026836117c2565b9150611f0482611e9d565b604082019050919050565b60006020820190508181036000830152611f2881611eec565b9050919050565b7f4b4950373a20617070726f76652066726f6d20746865207a65726f206164647260008201527f6573730000000000000000000000000000000000000000000000000000000000602082015250565b6000611f8b6023836117c2565b9150611f9682611f2f565b604082019050919050565b60006020820190508181036000830152611fba81611f7e565b9050919050565b7f4b4950373a20617070726f766520746f20746865207a65726f2061646472657360008201527f7300000000000000000000000000000000000000000000000000000000000000602082015250565b600061201d6021836117c2565b915061202882611fc1565b604082019050919050565b6000602082019050818103600083015261204c81612010565b9050919050565b7f4b4950373a20696e73756666696369656e7420616c6c6f77616e636500000000600082015250565b6000612089601c836117c2565b915061209482612053565b602082019050919050565b600060208201905081810360008301526120b88161207c565b9050919050565b7f4b4950373a207472616e736665722066726f6d20746865207a65726f2061646460008201527f7265737300000000000000000000000000000000000000000000000000000000602082015250565b600061211b6024836117c2565b9150612126826120bf565b604082019050919050565b6000602082019050818103600083015261214a8161210e565b9050919050565b7f4b4950373a207472616e7366657220746f20746865207a65726f20616464726560008201527f7373000000000000000000000000000000000000000000000000000000000000602082015250565b60006121ad6022836117c2565b91506121b882612151565b604082019050919050565b600060208201905081810360008301526121dc816121a0565b9050919050565b7f4b4950373a207472616e7366657220616d6f756e74206578636565647320626160008201527f6c616e6365000000000000000000000000000000000000000000000000000000602082015250565b600061223f6025836117c2565b915061224a826121e3565b604082019050919050565b6000602082019050818103600083015261226e81612232565b9050919050565b7f4b4950373a206d696e7420746f20746865207a65726f20616464726573730000600082015250565b60006122ab601e836117c2565b91506122b682612275565b602082019050919050565b600060208201905081810360008301526122da8161229e565b9050919050565b7f4b4950373a207472616e7366657220746f206e6f6e20494b495037526563656960008201527f76657220696d706c656d656e7465720000000000000000000000000000000000602082015250565b600061233d602f836117c2565b9150612348826122e1565b604082019050919050565b6000602082019050818103600083015261236c81612330565b9050919050565b7f4b4950373a206275726e2066726f6d20746865207a65726f2061646472657373600082015250565b60006123a96020836117c2565b91506123b482612373565b602082019050919050565b600060208201905081810360008301526123d88161239c565b9050919050565b7f4b4950373a206275726e20616d6f756e7420657863656564732062616c616e6360008201527f6500000000000000000000000000000000000000000000000000000000000000602082015250565b600061243b6021836117c2565b9150612446826123df565b604082019050919050565b6000602082019050818103600083015261246a8161242e565b9050919050565b600061247c826118c7565b9150612487836118c7565b925082820390508181111561249f5761249e611d3c565b5b92915050565b600081519050919050565b600082825260208201905092915050565b60006124cc826124a5565b6124d681856124b0565b93506124e68185602086016117d3565b6124ef816117fd565b840191505092915050565b600060808201905061250f6000830187611a4b565b61251c6020830186611a4b565b612529604083018561193d565b818103606083015261253b81846124c1565b905095945050505050565b60008151905061255581611728565b92915050565b600060208284031215612571576125706116f2565b5b600061257f84828501612546565b91505092915050565b7f4b4950373a207472616e7366657220746f206e6f6e204b49503752656365697660008201527f657220696d706c656d656e746572000000000000000000000000000000000000602082015250565b60006125e4602e836117c2565b91506125ef82612588565b604082019050919050565b60006020820190508181036000830152612613816125d7565b905091905056fea2646970667358221220c75329edad7b029803869987832808fd03b71e995dc1e4ee120c75a56776068f64736f6c634300081b0033",
  "linkReferences": {},
  "deployedLinkReferences": {}
}