{
  "_format": "hh-sol-artifact-1",
  "contractName": "SecureTransfer",
  "sourceName": "contracts/securetransfer/SecureTransfer.sol",
  "abi": [
    {
      "inputs": [],
      "name": "CannotReimburse",
      "type": "error"
    },
    {
      "inputs": [],
      "name": "InvalidPayee",
      "type": "error"
    },
    {
      "inputs": [],
      "name": "NotPayee",
      "type": "error"
    },
    {
      "inputs": [],
      "name": "NotPayer",
      "type": "error"
    },
    {
      "inputs": [],
      "name": "NothingToClaim",
      "type": "error"
    },
    {
      "inputs": [],
      "name": "PaymentAlreadyExists",
      "type": "error"
    },
    {
      "inputs": [],
      "name": "ReentrancyGuardReentrantCall",
      "type": "error"
    },
    {
      "inputs": [],
      "name": "TransferFailed",
      "type": "error"
    },
    {
      "inputs": [],
      "name": "ZeroAmount",
      "type": "error"
    },
    {
      "anonymous": false,
      "inputs": [
        {
          "indexed": true,
          "internalType": "bytes32",
          "name": "paymentId",
          "type": "bytes32"
        },
        {
          "indexed": true,
          "internalType": "address",
          "name": "by",
          "type": "address"
        },
        {
          "indexed": false,
          "internalType": "uint256",
          "name": "amount",
          "type": "uint256"
        },
        {
          "indexed": false,
          "internalType": "address",
          "name": "tokenAddress",
          "type": "address"
        }
      ],
      "name": "PaymentClaimed",
      "type": "event"
    },
    {
      "anonymous": false,
      "inputs": [
        {
          "indexed": true,
          "internalType": "bytes32",
          "name": "paymentId",
          "type": "bytes32"
        },
        {
          "indexed": true,
          "internalType": "address",
          "name": "by",
          "type": "address"
        },
        {
          "indexed": false,
          "internalType": "uint256",
          "name": "amount",
          "type": "uint256"
        },
        {
          "indexed": false,
          "internalType": "address",
          "name": "tokenAddress",
          "type": "address"
        }
      ],
      "name": "PaymentReimbursed",
      "type": "event"
    },
    {
      "anonymous": false,
      "inputs": [
        {
          "indexed": true,
          "internalType": "bytes32",
          "name": "paymentId",
          "type": "bytes32"
        },
        {
          "indexed": true,
          "internalType": "address",
          "name": "from",
          "type": "address"
        },
        {
          "indexed": true,
          "internalType": "address",
          "name": "to",
          "type": "address"
        },
        {
          "indexed": false,
          "internalType": "uint256",
          "name": "amount",
          "type": "uint256"
        },
        {
          "indexed": false,
          "internalType": "address",
          "name": "tokenAddress",
          "type": "address"
        }
      ],
      "name": "PaymentSent",
      "type": "event"
    },
    {
      "inputs": [
        {
          "internalType": "bytes32",
          "name": "paymentId",
          "type": "bytes32"
        }
      ],
      "name": "claim",
      "outputs": [],
      "stateMutability": "nonpayable",
      "type": "function"
    },
    {
      "inputs": [
        {
          "internalType": "bytes32",
          "name": "paymentId",
          "type": "bytes32"
        }
      ],
      "name": "getPaymentDetails",
      "outputs": [
        {
          "internalType": "address",
          "name": "payer",
          "type": "address"
        },
        {
          "internalType": "address",
          "name": "payee",
          "type": "address"
        },
        {
          "internalType": "uint256",
          "name": "amount",
          "type": "uint256"
        },
        {
          "internalType": "uint256",
          "name": "createdAt",
          "type": "uint256"
        },
        {
          "internalType": "string",
          "name": "status",
          "type": "string"
        },
        {
          "internalType": "address",
          "name": "tokenAddress",
          "type": "address"
        }
      ],
      "stateMutability": "view",
      "type": "function"
    },
    {
      "inputs": [
        {
          "internalType": "bytes32",
          "name": "paymentId",
          "type": "bytes32"
        }
      ],
      "name": "paymentExists",
      "outputs": [
        {
          "internalType": "bool",
          "name": "",
          "type": "bool"
        }
      ],
      "stateMutability": "view",
      "type": "function"
    },
    {
      "inputs": [
        {
          "internalType": "bytes32",
          "name": "",
          "type": "bytes32"
        }
      ],
      "name": "payments",
      "outputs": [
        {
          "internalType": "address",
          "name": "payer",
          "type": "address"
        },
        {
          "internalType": "address",
          "name": "payee",
          "type": "address"
        },
        {
          "internalType": "uint256",
          "name": "amount",
          "type": "uint256"
        },
        {
          "internalType": "uint256",
          "name": "createdAt",
          "type": "uint256"
        },
        {
          "internalType": "bytes32",
          "name": "paymentId",
          "type": "bytes32"
        },
        {
          "internalType": "uint8",
          "name": "status",
          "type": "uint8"
        },
        {
          "internalType": "address",
          "name": "tokenAddress",
          "type": "address"
        },
        {
          "internalType": "bool",
          "name": "exists",
          "type": "bool"
        }
      ],
      "stateMutability": "view",
      "type": "function"
    },
    {
      "inputs": [
        {
          "internalType": "bytes32",
          "name": "paymentId",
          "type": "bytes32"
        }
      ],
      "name": "reimburse",
      "outputs": [],
      "stateMutability": "nonpayable",
      "type": "function"
    },
    {
      "inputs": [
        {
          "internalType": "bytes32",
          "name": "paymentId",
          "type": "bytes32"
        },
        {
          "internalType": "address",
          "name": "payee",
          "type": "address"
        },
        {
          "internalType": "address",
          "name": "tokenAddress",
          "type": "address"
        },
        {
          "internalType": "uint256",
          "name": "amount",
          "type": "uint256"
        }
      ],
      "name": "sendERC20",
      "outputs": [],
      "stateMutability": "nonpayable",
      "type": "function"
    },
    {
      "inputs": [
        {
          "internalType": "bytes32",
          "name": "paymentId",
          "type": "bytes32"
        },
        {
          "internalType": "address",
          "name": "payee",
          "type": "address"
        }
      ],
      "name": "sendETH",
      "outputs": [],
      "stateMutability": "payable",
      "type": "function"
    },
    {
      "inputs": [
        {
          "internalType": "bytes32",
          "name": "paymentId",
          "type": "bytes32"
        }
      ],
      "name": "statusAsString",
      "outputs": [
        {
          "internalType": "string",
          "name": "",
          "type": "string"
        }
      ],
      "stateMutability": "view",
      "type": "function"
    },
    {
      "inputs": [
        {
          "internalType": "bytes32",
          "name": "paymentId",
          "type": "bytes32"
        }
      ],
      "name": "statusIsClaimed",
      "outputs": [
        {
          "internalType": "bool",
          "name": "",
          "type": "bool"
        }
      ],
      "stateMutability": "view",
      "type": "function"
    },
    {
      "inputs": [
        {
          "internalType": "bytes32",
          "name": "paymentId",
          "type": "bytes32"
        }
      ],
      "name": "statusIsReimbursed",
      "outputs": [
        {
          "internalType": "bool",
          "name": "",
          "type": "bool"
        }
      ],
      "stateMutability": "view",
      "type": "function"
    },
    {
      "inputs": [
        {
          "internalType": "bytes32",
          "name": "paymentId",
          "type": "bytes32"
        }
      ],
      "name": "statusIsSent",
      "outputs": [
        {
          "internalType": "bool",
          "name": "",
          "type": "bool"
        }
      ],
      "stateMutability": "view",
      "type": "function"
    }
  ],
  "bytecode": "0x6080604052348015600f57600080fd5b506001600081905550611b13806100276000396000f3fe60806040526004361061009c5760003560e01c80636fe1a6ed116100645780636fe1a6ed146101ca5780638e61032814610207578063bd66528a14610230578063bf1fe7c314610259578063dcd63af814610296578063e7b2042e146102b25761009c565b80630716326d146100a157806310e12218146100e557806329822c451461010e578063417a9be41461014b5780635fd1399614610188575b600080fd5b3480156100ad57600080fd5b506100c860048036038101906100c39190611636565b6102ef565b6040516100dc989796959493929190611703565b60405180910390f35b3480156100f157600080fd5b5061010c600480360381019061010791906117d9565b6103b1565b005b34801561011a57600080fd5b5061013560048036038101906101309190611636565b61081f565b6040516101429190611840565b60405180910390f35b34801561015757600080fd5b50610172600480360381019061016d9190611636565b610855565b60405161017f9190611840565b60405180910390f35b34801561019457600080fd5b506101af60048036038101906101aa9190611636565b610882565b6040516101c1969594939291906118eb565b60405180910390f35b3480156101d657600080fd5b506101f160048036038101906101ec9190611636565b61093a565b6040516101fe9190611840565b60405180910390f35b34801561021357600080fd5b5061022e60048036038101906102299190611636565b61096f565b005b34801561023c57600080fd5b5061025760048036038101906102529190611636565b610d41565b005b34801561026557600080fd5b50610280600480360381019061027b9190611636565b611113565b60405161028d9190611840565b60405180910390f35b6102b060048036038101906102ab9190611953565b611149565b005b3480156102be57600080fd5b506102d960048036038101906102d49190611636565b61148f565b6040516102e69190611993565b60405180910390f35b60016020528060005260406000206000915090508060000160009054906101000a900473ffffffffffffffffffffffffffffffffffffffff16908060010160009054906101000a900473ffffffffffffffffffffffffffffffffffffffff16908060020154908060030154908060040154908060050160009054906101000a900460ff16908060050160019054906101000a900473ffffffffffffffffffffffffffffffffffffffff16908060050160159054906101000a900460ff16905088565b6103b96115ab565b600081036103f3576040517f1f2a200500000000000000000000000000000000000000000000000000000000815260040160405180910390fd5b600073ffffffffffffffffffffffffffffffffffffffff168373ffffffffffffffffffffffffffffffffffffffff1603610459576040517fb387a23800000000000000000000000000000000000000000000000000000000815260040160405180910390fd5b600073ffffffffffffffffffffffffffffffffffffffff168273ffffffffffffffffffffffffffffffffffffffff16036104bf576040517fb387a23800000000000000000000000000000000000000000000000000000000815260040160405180910390fd5b6001600085815260200190815260200160002060050160159054906101000a900460ff161561051a576040517f19caaec600000000000000000000000000000000000000000000000000000000815260040160405180910390fd5b600082905060008173ffffffffffffffffffffffffffffffffffffffff166323b872dd3330866040518463ffffffff1660e01b815260040161055e939291906119b5565b6020604051808303816000875af115801561057d573d6000803e3d6000fd5b505050506040513d601f19601f820116820180604052508101906105a19190611a18565b9050806105da576040517f90b8ec1800000000000000000000000000000000000000000000000000000000815260040160405180910390fd5b6040518061010001604052803373ffffffffffffffffffffffffffffffffffffffff1681526020018673ffffffffffffffffffffffffffffffffffffffff168152602001848152602001428152602001878152602001600060ff1681526020018573ffffffffffffffffffffffffffffffffffffffff168152602001600115158152506001600088815260200190815260200160002060008201518160000160006101000a81548173ffffffffffffffffffffffffffffffffffffffff021916908373ffffffffffffffffffffffffffffffffffffffff16021790555060208201518160010160006101000a81548173ffffffffffffffffffffffffffffffffffffffff021916908373ffffffffffffffffffffffffffffffffffffffff16021790555060408201518160020155606082015181600301556080820151816004015560a08201518160050160006101000a81548160ff021916908360ff16021790555060c08201518160050160016101000a81548173ffffffffffffffffffffffffffffffffffffffff021916908373ffffffffffffffffffffffffffffffffffffffff16021790555060e08201518160050160156101000a81548160ff0219169083151502179055509050508473ffffffffffffffffffffffffffffffffffffffff163373ffffffffffffffffffffffffffffffffffffffff16877f60495347561bb04f4ac328b99ff13022ae674debc700897535fcfebf9c8168df8688604051610807929190611a45565b60405180910390a450506108196115f1565b50505050565b6000600260ff166001600084815260200190815260200160002060050160009054906101000a900460ff1660ff16149050919050565b60006001600083815260200190815260200160002060050160159054906101000a900460ff169050919050565b60008060008060606000806001600089815260200190815260200160002090508060000160009054906101000a900473ffffffffffffffffffffffffffffffffffffffff168160010160009054906101000a900473ffffffffffffffffffffffffffffffffffffffff16826002015483600301546108ff8c61148f565b8560050160019054906101000a900473ffffffffffffffffffffffffffffffffffffffff169650965096509650965096505091939550919395565b60008060ff166001600084815260200190815260200160002060050160009054906101000a900460ff1660ff16149050919050565b6109776115ab565b6000600160008381526020019081526020016000209050600060ff168160050160009054906101000a900460ff1660ff16146109df576040517ffad6047a00000000000000000000000000000000000000000000000000000000815260040160405180910390fd5b8060000160009054906101000a900473ffffffffffffffffffffffffffffffffffffffff1673ffffffffffffffffffffffffffffffffffffffff163373ffffffffffffffffffffffffffffffffffffffff1614610a68576040517f1435e35700000000000000000000000000000000000000000000000000000000815260040160405180910390fd5b60028160050160006101000a81548160ff021916908360ff160217905550600073ffffffffffffffffffffffffffffffffffffffff168160050160019054906101000a900473ffffffffffffffffffffffffffffffffffffffff1673ffffffffffffffffffffffffffffffffffffffff1603610baf5760008160000160009054906101000a900473ffffffffffffffffffffffffffffffffffffffff1673ffffffffffffffffffffffffffffffffffffffff168260020154604051610b2c90611a9f565b60006040518083038185875af1925050503d8060008114610b69576040519150601f19603f3d011682016040523d82523d6000602084013e610b6e565b606091505b5050905080610ba9576040517f90b8ec1800000000000000000000000000000000000000000000000000000000815260040160405180910390fd5b50610cbc565b60008160050160019054906101000a900473ffffffffffffffffffffffffffffffffffffffff16905060008173ffffffffffffffffffffffffffffffffffffffff1663a9059cbb8460000160009054906101000a900473ffffffffffffffffffffffffffffffffffffffff1685600201546040518363ffffffff1660e01b8152600401610c3d929190611ab4565b6020604051808303816000875af1158015610c5c573d6000803e3d6000fd5b505050506040513d601f19601f82011682018060405250810190610c809190611a18565b905080610cb9576040517f90b8ec1800000000000000000000000000000000000000000000000000000000815260040160405180910390fd5b50505b3373ffffffffffffffffffffffffffffffffffffffff16827faeb2af57c958f1aa2551de9c02354ad7c255fb9ae816cd5ab4265bde990b21c683600201548460050160019054906101000a900473ffffffffffffffffffffffffffffffffffffffff16604051610d2d929190611a45565b60405180910390a350610d3e6115f1565b50565b610d496115ab565b6000600160008381526020019081526020016000209050600060ff168160050160009054906101000a900460ff1660ff1614610db1576040517f969bf72800000000000000000000000000000000000000000000000000000000815260040160405180910390fd5b8060010160009054906101000a900473ffffffffffffffffffffffffffffffffffffffff1673ffffffffffffffffffffffffffffffffffffffff163373ffffffffffffffffffffffffffffffffffffffff1614610e3a576040517f56cab67b00000000000000000000000000000000000000000000000000000000815260040160405180910390fd5b60018160050160006101000a81548160ff021916908360ff160217905550600073ffffffffffffffffffffffffffffffffffffffff168160050160019054906101000a900473ffffffffffffffffffffffffffffffffffffffff1673ffffffffffffffffffffffffffffffffffffffff1603610f815760008160010160009054906101000a900473ffffffffffffffffffffffffffffffffffffffff1673ffffffffffffffffffffffffffffffffffffffff168260020154604051610efe90611a9f565b60006040518083038185875af1925050503d8060008114610f3b576040519150601f19603f3d011682016040523d82523d6000602084013e610f40565b606091505b5050905080610f7b576040517f90b8ec1800000000000000000000000000000000000000000000000000000000815260040160405180910390fd5b5061108e565b60008160050160019054906101000a900473ffffffffffffffffffffffffffffffffffffffff16905060008173ffffffffffffffffffffffffffffffffffffffff1663a9059cbb8460010160009054906101000a900473ffffffffffffffffffffffffffffffffffffffff1685600201546040518363ffffffff1660e01b815260040161100f929190611ab4565b6020604051808303816000875af115801561102e573d6000803e3d6000fd5b505050506040513d601f19601f820116820180604052508101906110529190611a18565b90508061108b576040517f90b8ec1800000000000000000000000000000000000000000000000000000000815260040160405180910390fd5b50505b3373ffffffffffffffffffffffffffffffffffffffff16827f7168bb8661697c5de9a0afe52f39f4a3adafa3b16a7dc3f0b2490bf4b6d84ede83600201548460050160019054906101000a900473ffffffffffffffffffffffffffffffffffffffff166040516110ff929190611a45565b60405180910390a3506111106115f1565b50565b6000600160ff166001600084815260200190815260200160002060050160009054906101000a900460ff1660ff16149050919050565b6111516115ab565b6000340361118b576040517f1f2a200500000000000000000000000000000000000000000000000000000000815260040160405180910390fd5b600073ffffffffffffffffffffffffffffffffffffffff168173ffffffffffffffffffffffffffffffffffffffff16036111f1576040517fb387a23800000000000000000000000000000000000000000000000000000000815260040160405180910390fd5b6001600083815260200190815260200160002060050160159054906101000a900460ff161561124c576040517f19caaec600000000000000000000000000000000000000000000000000000000815260040160405180910390fd5b6040518061010001604052803373ffffffffffffffffffffffffffffffffffffffff1681526020018273ffffffffffffffffffffffffffffffffffffffff168152602001348152602001428152602001838152602001600060ff168152602001600073ffffffffffffffffffffffffffffffffffffffff168152602001600115158152506001600084815260200190815260200160002060008201518160000160006101000a81548173ffffffffffffffffffffffffffffffffffffffff021916908373ffffffffffffffffffffffffffffffffffffffff16021790555060208201518160010160006101000a81548173ffffffffffffffffffffffffffffffffffffffff021916908373ffffffffffffffffffffffffffffffffffffffff16021790555060408201518160020155606082015181600301556080820151816004015560a08201518160050160006101000a81548160ff021916908360ff16021790555060c08201518160050160016101000a81548173ffffffffffffffffffffffffffffffffffffffff021916908373ffffffffffffffffffffffffffffffffffffffff16021790555060e08201518160050160156101000a81548160ff0219169083151502179055509050508073ffffffffffffffffffffffffffffffffffffffff163373ffffffffffffffffffffffffffffffffffffffff16837f60495347561bb04f4ac328b99ff13022ae674debc700897535fcfebf9c8168df34600060405161147b929190611a45565b60405180910390a461148b6115f1565b5050565b6060600060ff166001600084815260200190815260200160002060050160009054906101000a900460ff1660ff16036114ff576040518060400160405280600481526020017f53656e740000000000000000000000000000000000000000000000000000000081525090506115a6565b600160ff166001600084815260200190815260200160002060050160009054906101000a900460ff1660ff160361156d576040518060400160405280600781526020017f436c61696d65640000000000000000000000000000000000000000000000000081525090506115a6565b6040518060400160405280600a81526020017f5265696d6275727365640000000000000000000000000000000000000000000081525090505b919050565b6002600054036115e7576040517f3ee5aeb500000000000000000000000000000000000000000000000000000000815260040160405180910390fd5b6002600081905550565b6001600081905550565b600080fd5b6000819050919050565b61161381611600565b811461161e57600080fd5b50565b6000813590506116308161160a565b92915050565b60006020828403121561164c5761164b6115fb565b5b600061165a84828501611621565b91505092915050565b600073ffffffffffffffffffffffffffffffffffffffff82169050919050565b600061168e82611663565b9050919050565b61169e81611683565b82525050565b6000819050919050565b6116b7816116a4565b82525050565b6116c681611600565b82525050565b600060ff82169050919050565b6116e2816116cc565b82525050565b60008115159050919050565b6116fd816116e8565b82525050565b600061010082019050611719600083018b611695565b611726602083018a611695565b61173360408301896116ae565b61174060608301886116ae565b61174d60808301876116bd565b61175a60a08301866116d9565b61176760c0830185611695565b61177460e08301846116f4565b9998505050505050505050565b61178a81611683565b811461179557600080fd5b50565b6000813590506117a781611781565b92915050565b6117b6816116a4565b81146117c157600080fd5b50565b6000813590506117d3816117ad565b92915050565b600080600080608085870312156117f3576117f26115fb565b5b600061180187828801611621565b945050602061181287828801611798565b935050604061182387828801611798565b9250506060611834878288016117c4565b91505092959194509250565b600060208201905061185560008301846116f4565b92915050565b600081519050919050565b600082825260208201905092915050565b60005b8381101561189557808201518184015260208101905061187a565b60008484015250505050565b6000601f19601f8301169050919050565b60006118bd8261185b565b6118c78185611866565b93506118d7818560208601611877565b6118e0816118a1565b840191505092915050565b600060c0820190506119006000830189611695565b61190d6020830188611695565b61191a60408301876116ae565b61192760608301866116ae565b818103608083015261193981856118b2565b905061194860a0830184611695565b979650505050505050565b6000806040838503121561196a576119696115fb565b5b600061197885828601611621565b925050602061198985828601611798565b9150509250929050565b600060208201905081810360008301526119ad81846118b2565b905092915050565b60006060820190506119ca6000830186611695565b6119d76020830185611695565b6119e460408301846116ae565b949350505050565b6119f5816116e8565b8114611a0057600080fd5b50565b600081519050611a12816119ec565b92915050565b600060208284031215611a2e57611a2d6115fb565b5b6000611a3c84828501611a03565b91505092915050565b6000604082019050611a5a60008301856116ae565b611a676020830184611695565b9392505050565b600081905092915050565b50565b6000611a89600083611a6e565b9150611a9482611a79565b600082019050919050565b6000611aaa82611a7c565b9150819050919050565b6000604082019050611ac96000830185611695565b611ad660208301846116ae565b939250505056fea264697066735822122068c84f63a419846ff4d5e67cc29b5ccac33bb02c532cdec2909b7662254ac0cd64736f6c634300081b0033",
  "linkReferences": {},
  "deployedLinkReferences": {}
}