{
  "_format": "hh-sol-artifact-1",
  "contractName": "UltraSimplePayment",
  "sourceName": "contracts/UltraSimplePayment.sol",
  "abi": [
    {
      "inputs": [],
      "stateMutability": "nonpayable",
      "type": "constructor"
    },
    {
      "anonymous": false,
      "inputs": [
        {
          "indexed": true,
          "internalType": "address",
          "name": "from",
          "type": "address"
        },
        {
          "indexed": false,
          "internalType": "uint256",
          "name": "amount",
          "type": "uint256"
        }
      ],
      "name": "PaymentReceived",
      "type": "event"
    },
    {
      "anonymous": false,
      "inputs": [
        {
          "indexed": true,
          "internalType": "address",
          "name": "sender",
          "type": "address"
        },
        {
          "indexed": true,
          "internalType": "address",
          "name": "recipient",
          "type": "address"
        },
        {
          "indexed": false,
          "internalType": "uint256",
          "name": "amount",
          "type": "uint256"
        }
      ],
      "name": "PaymentSent",
      "type": "event"
    },
    {
      "inputs": [],
      "name": "getBalance",
      "outputs": [
        {
          "internalType": "uint256",
          "name": "",
          "type": "uint256"
        }
      ],
      "stateMutability": "view",
      "type": "function"
    },
    {
      "inputs": [],
      "name": "getStats",
      "outputs": [
        {
          "internalType": "uint256",
          "name": "",
          "type": "uint256"
        },
        {
          "internalType": "uint256",
          "name": "",
          "type": "uint256"
        }
      ],
      "stateMutability": "view",
      "type": "function"
    },
    {
      "inputs": [],
      "name": "owner",
      "outputs": [
        {
          "internalType": "address",
          "name": "",
          "type": "address"
        }
      ],
      "stateMutability": "view",
      "type": "function"
    },
    {
      "inputs": [
        {
          "internalType": "address",
          "name": "recipient",
          "type": "address"
        }
      ],
      "name": "sendPayment",
      "outputs": [],
      "stateMutability": "payable",
      "type": "function"
    },
    {
      "inputs": [],
      "name": "totalPayments",
      "outputs": [
        {
          "internalType": "uint256",
          "name": "",
          "type": "uint256"
        }
      ],
      "stateMutability": "view",
      "type": "function"
    },
    {
      "inputs": [],
      "name": "totalVolume",
      "outputs": [
        {
          "internalType": "uint256",
          "name": "",
          "type": "uint256"
        }
      ],
      "stateMutability": "view",
      "type": "function"
    },
    {
      "stateMutability": "payable",
      "type": "receive"
    }
  ],
  "bytecode": "0x6080604052348015600f57600080fd5b5033600260006101000a81548173ffffffffffffffffffffffffffffffffffffffff021916908373ffffffffffffffffffffffffffffffffffffffff16021790555061077b806100606000396000f3fe6080604052600436106100585760003560e01c80625b4487146100b257806312065fe0146100dd5780635f81a57c146101085780638a7644a8146101335780638da5cb5b1461014f578063c59d48471461017a576100ad565b366100ad573373ffffffffffffffffffffffffffffffffffffffff167f6ef95f06320e7a25a04a175ca677b7052bdd97131872c2192525a629f51be770346040516100a39190610401565b60405180910390a2005b600080fd5b3480156100be57600080fd5b506100c76101a6565b6040516100d49190610401565b60405180910390f35b3480156100e957600080fd5b506100f26101ac565b6040516100ff9190610401565b60405180910390f35b34801561011457600080fd5b5061011d6101b4565b60405161012a9190610401565b60405180910390f35b61014d6004803603810190610148919061047f565b6101ba565b005b34801561015b57600080fd5b506101646103b1565b60405161017191906104bb565b60405180910390f35b34801561018657600080fd5b5061018f6103d7565b60405161019d9291906104d6565b60405180910390f35b60005481565b600047905090565b60015481565b600073ffffffffffffffffffffffffffffffffffffffff168173ffffffffffffffffffffffffffffffffffffffff1603610229576040517f08c379a00000000000000000000000000000000000000000000000000000000081526004016102209061055c565b60405180910390fd5b6000341161026c576040517f08c379a0000000000000000000000000000000000000000000000000000000008152600401610263906105c8565b60405180910390fd5b60008173ffffffffffffffffffffffffffffffffffffffff163460405161029290610619565b60006040518083038185875af1925050503d80600081146102cf576040519150601f19603f3d011682016040523d82523d6000602084013e6102d4565b606091505b5050905080610318576040517f08c379a000000000000000000000000000000000000000000000000000000000815260040161030f9061067a565b60405180910390fd5b60008081548092919061032a906106c9565b919050555034600160008282546103419190610711565b925050819055508173ffffffffffffffffffffffffffffffffffffffff163373ffffffffffffffffffffffffffffffffffffffff167fd52bd61f7c422d441e024604f4517878fd3305d6acf0fe37baef23ed21af6bc9346040516103a59190610401565b60405180910390a35050565b600260009054906101000a900473ffffffffffffffffffffffffffffffffffffffff1681565b600080600054600154915091509091565b6000819050919050565b6103fb816103e8565b82525050565b600060208201905061041660008301846103f2565b92915050565b600080fd5b600073ffffffffffffffffffffffffffffffffffffffff82169050919050565b600061044c82610421565b9050919050565b61045c81610441565b811461046757600080fd5b50565b60008135905061047981610453565b92915050565b6000602082840312156104955761049461041c565b5b60006104a38482850161046a565b91505092915050565b6104b581610441565b82525050565b60006020820190506104d060008301846104ac565b92915050565b60006040820190506104eb60008301856103f2565b6104f860208301846103f2565b9392505050565b600082825260208201905092915050565b7f496e76616c696420726563697069656e74000000000000000000000000000000600082015250565b60006105466011836104ff565b915061055182610510565b602082019050919050565b6000602082019050818103600083015261057581610539565b9050919050565b7f4e6f207061796d656e7400000000000000000000000000000000000000000000600082015250565b60006105b2600a836104ff565b91506105bd8261057c565b602082019050919050565b600060208201905081810360008301526105e1816105a5565b9050919050565b600081905092915050565b50565b60006106036000836105e8565b915061060e826105f3565b600082019050919050565b6000610624826105f6565b9150819050919050565b7f5472616e73666572206661696c65640000000000000000000000000000000000600082015250565b6000610664600f836104ff565b915061066f8261062e565b602082019050919050565b6000602082019050818103600083015261069381610657565b9050919050565b7f4e487b7100000000000000000000000000000000000000000000000000000000600052601160045260246000fd5b60006106d4826103e8565b91507fffffffffffffffffffffffffffffffffffffffffffffffffffffffffffffffff82036107065761070561069a565b5b600182019050919050565b600061071c826103e8565b9150610727836103e8565b925082820190508082111561073f5761073e61069a565b5b9291505056fea2646970667358221220007d9d9febe7ef87a68cc426682791ecef4e8087c1ed4696603c6b0a933f048c64736f6c634300081b0033",
  "linkReferences": {},
  "deployedLinkReferences": {}
}